{
    "_format": "hh-sol-artifact-1",
    "contractName": "Donation",
    "sourceName": "contracts/Donation.sol",
    "abi": [
        {
            "inputs": [
                {
                    "internalType": "address",
                    "name": "_tokenAddress",
                    "type": "address"
                }
            ],
            "stateMutability": "nonpayable",
            "type": "constructor"
        },
        {
            "anonymous": false,
            "inputs": [
                {
                    "indexed": true,
                    "internalType": "uint256",
                    "name": "campaignId",
                    "type": "uint256"
                },
                {
                    "indexed": true,
                    "internalType": "address",
                    "name": "owner",
                    "type": "address"
                },
                {
                    "indexed": false,
                    "internalType": "uint256",
                    "name": "targetAmount",
                    "type": "uint256"
                },
                {
                    "indexed": false,
                    "internalType": "uint256",
                    "name": "timestamp",
                    "type": "uint256"
                }
            ],
            "name": "CampaignCreated",
            "type": "event"
        },
        {
            "anonymous": false,
            "inputs": [
                {
                    "indexed": true,
                    "internalType": "address",
                    "name": "donor",
                    "type": "address"
                },
                {
                    "indexed": true,
                    "internalType": "uint256",
                    "name": "campaignId",
                    "type": "uint256"
                },
                {
                    "indexed": false,
                    "internalType": "uint256",
                    "name": "addmod",
                    "type": "uint256"
                },
                {
                    "indexed": false,
                    "internalType": "uint256",
                    "name": "timestamp",
                    "type": "uint256"
                }
            ],
            "name": "DonationReceived",
            "type": "event"
        },
        {
            "anonymous": false,
            "inputs": [
                {
                    "indexed": true,
                    "internalType": "uint256",
                    "name": "campaignId",
                    "type": "uint256"
                },
                {
                    "indexed": false,
                    "internalType": "uint256",
                    "name": "amount",
                    "type": "uint256"
                },
                {
                    "indexed": false,
                    "internalType": "uint256",
                    "name": "timestamp",
                    "type": "uint256"
                }
            ],
            "name": "FundsWithdrawn",
            "type": "event"
        },
        {
            "inputs": [],
            "name": "campaignCounter",
            "outputs": [
                {
                    "internalType": "uint256",
                    "name": "",
                    "type": "uint256"
                }
            ],
            "stateMutability": "view",
            "type": "function"
        },
        {
            "inputs": [
                {
                    "internalType": "uint256",
                    "name": "",
                    "type": "uint256"
                }
            ],
            "name": "campaigns",
            "outputs": [
                {
                    "internalType": "uint256",
                    "name": "id",
                    "type": "uint256"
                },
                {
                    "internalType": "string",
                    "name": "title",
                    "type": "string"
                },
                {
                    "internalType": "string",
                    "name": "description",
                    "type": "string"
                },
                {
                    "internalType": "uint256",
                    "name": "targetAmount",
                    "type": "uint256"
                },
                {
                    "internalType": "uint256",
                    "name": "raisedAmount",
                    "type": "uint256"
                },
                {
                    "internalType": "address",
                    "name": "beneficiary",
                    "type": "address"
                },
                {
                    "internalType": "address",
                    "name": "owner",
                    "type": "address"
                },
                {
                    "internalType": "bool",
                    "name": "isActive",
                    "type": "bool"
                },
                {
                    "internalType": "uint256",
                    "name": "createdAt",
                    "type": "uint256"
                }
            ],
            "stateMutability": "view",
            "type": "function"
        },
        {
            "inputs": [
                {
                    "internalType": "string",
                    "name": "_title",
                    "type": "string"
                },
                {
                    "internalType": "string",
                    "name": "_description",
                    "type": "string"
                },
                {
                    "internalType": "uint256",
                    "name": "_targetAmount",
                    "type": "uint256"
                },
                {
                    "internalType": "address",
                    "name": "_beneficiary",
                    "type": "address"
                }
            ],
            "name": "createCampaign",
            "outputs": [],
            "stateMutability": "nonpayable",
            "type": "function"
        },
        {
            "inputs": [
                {
                    "internalType": "uint256",
                    "name": "_campaignId",
                    "type": "uint256"
                },
                {
                    "internalType": "uint256",
                    "name": "_amount",
                    "type": "uint256"
                }
            ],
            "name": "donateToCampaign",
            "outputs": [],
            "stateMutability": "nonpayable",
            "type": "function"
        },
        {
            "inputs": [],
            "name": "donationToken",
            "outputs": [
                {
                    "internalType": "contract IERC20",
                    "name": "",
                    "type": "address"
                }
            ],
            "stateMutability": "view",
            "type": "function"
        },
        {
            "inputs": [
                {
                    "internalType": "address",
                    "name": "",
                    "type": "address"
                },
                {
                    "internalType": "uint256",
                    "name": "",
                    "type": "uint256"
                }
            ],
            "name": "donorHistory",
            "outputs": [
                {
                    "internalType": "uint256",
                    "name": "campaignId",
                    "type": "uint256"
                },
                {
                    "internalType": "address",
                    "name": "donor",
                    "type": "address"
                },
                {
                    "internalType": "uint256",
                    "name": "amount",
                    "type": "uint256"
                },
                {
                    "internalType": "uint256",
                    "name": "timestamp",
                    "type": "uint256"
                }
            ],
            "stateMutability": "view",
            "type": "function"
        },
        {
            "inputs": [
                {
                    "internalType": "address",
                    "name": "_donor",
                    "type": "address"
                }
            ],
            "name": "getDonationHistory",
            "outputs": [
                {
                    "components": [
                        {
                            "internalType": "uint256",
                            "name": "campaignId",
                            "type": "uint256"
                        },
                        {
                            "internalType": "address",
                            "name": "donor",
                            "type": "address"
                        },
                        {
                            "internalType": "uint256",
                            "name": "amount",
                            "type": "uint256"
                        },
                        {
                            "internalType": "uint256",
                            "name": "timestamp",
                            "type": "uint256"
                        }
                    ],
                    "internalType": "struct Donation.DonationDetail[]",
                    "name": "",
                    "type": "tuple[]"
                }
            ],
            "stateMutability": "view",
            "type": "function"
        },
        {
            "inputs": [
                {
                    "internalType": "uint256",
                    "name": "_campaignId",
                    "type": "uint256"
                }
            ],
            "name": "withdrawFunds",
            "outputs": [],
            "stateMutability": "nonpayable",
            "type": "function"
        }
    ],
    "bytecode": "0x608060405234801561001057600080fd5b50604051611e6f380380611e6f8339818101604052810190610032919061014b565b600073ffffffffffffffffffffffffffffffffffffffff168173ffffffffffffffffffffffffffffffffffffffff16036100a1576040517f08c379a0000000000000000000000000000000000000000000000000000000008152600401610098906101d5565b60405180910390fd5b80600360006101000a81548173ffffffffffffffffffffffffffffffffffffffff021916908373ffffffffffffffffffffffffffffffffffffffff160217905550506101f5565b600080fd5b600073ffffffffffffffffffffffffffffffffffffffff82169050919050565b6000610118826100ed565b9050919050565b6101288161010d565b811461013357600080fd5b50565b6000815190506101458161011f565b92915050565b600060208284031215610161576101606100e8565b5b600061016f84828501610136565b91505092915050565b600082825260208201905092915050565b7f496e76616c696420746f6b656e20616464726573730000000000000000000000600082015250565b60006101bf601583610178565b91506101ca82610189565b602082019050919050565b600060208201905081810360008301526101ee816101b2565b9050919050565b611c6b806102046000396000f3fe608060405234801561001057600080fd5b50600436106100885760003560e01c80637969f3b81161005b5780637969f3b81461011b578063a59fe3881461014e578063f7aa07f01461017e578063fca604d71461019a57610088565b80630df721591461008d578063141961bc146100ab578063155dd5ee146100e35780632b7216e5146100ff575b600080fd5b6100956101b8565b6040516100a29190610e15565b60405180910390f35b6100c560048036038101906100c09190610e7a565b6101de565b6040516100da99989796959493929190610f82565b60405180910390f35b6100fd60048036038101906100f89190610e7a565b610389565b005b6101196004803603810190610114919061101d565b610660565b005b61013560048036038101906101309190611089565b610962565b60405161014594939291906110c9565b60405180910390f35b6101686004803603810190610163919061110e565b6109cf565b604051610175919061125d565b60405180910390f35b610198600480360381019061019391906113b4565b610ae1565b005b6101a2610d90565b6040516101af9190611453565b60405180910390f35b600360009054906101000a900473ffffffffffffffffffffffffffffffffffffffff1681565b60006020528060005260406000206000915090508060000154908060010180546102079061149d565b80601f01602080910402602001604051908101604052809291908181526020018280546102339061149d565b80156102805780601f1061025557610100808354040283529160200191610280565b820191906000526020600020905b81548152906001019060200180831161026357829003601f168201915b5050505050908060020180546102959061149d565b80601f01602080910402602001604051908101604052809291908181526020018280546102c19061149d565b801561030e5780601f106102e35761010080835404028352916020019161030e565b820191906000526020600020905b8154815290600101906020018083116102f157829003601f168201915b5050505050908060030154908060040154908060050160009054906101000a900473ffffffffffffffffffffffffffffffffffffffff16908060060160009054906101000a900473ffffffffffffffffffffffffffffffffffffffff16908060060160149054906101000a900460ff16908060070154905089565b600080600083815260200190815260200160002090508060060160009054906101000a900473ffffffffffffffffffffffffffffffffffffffff1673ffffffffffffffffffffffffffffffffffffffff163373ffffffffffffffffffffffffffffffffffffffff1614610431576040517f08c379a000000000000000000000000000000000000000000000000000000000815260040161042890611540565b60405180910390fd5b6000816004015411610478576040517f08c379a000000000000000000000000000000000000000000000000000000000815260040161046f906115ac565b60405180910390fd5b600073ffffffffffffffffffffffffffffffffffffffff168160050160009054906101000a900473ffffffffffffffffffffffffffffffffffffffff1673ffffffffffffffffffffffffffffffffffffffff160361050b576040517f08c379a000000000000000000000000000000000000000000000000000000000815260040161050290611618565b60405180910390fd5b60008160040154905060008260040181905550600360009054906101000a900473ffffffffffffffffffffffffffffffffffffffff1673ffffffffffffffffffffffffffffffffffffffff1663a9059cbb8360050160009054906101000a900473ffffffffffffffffffffffffffffffffffffffff16836040518363ffffffff1660e01b815260040161059f929190611638565b6020604051808303816000875af11580156105be573d6000803e3d6000fd5b505050506040513d601f19601f820116820180604052508101906105e2919061168d565b610621576040517f08c379a000000000000000000000000000000000000000000000000000000000815260040161061890611706565b60405180910390fd5b827fd5550c71ca14cc44783a664cd798ecb70dcefed6b3cfdf323041ce6d221f2d728242604051610653929190611726565b60405180910390a2505050565b600081116106a3576040517f08c379a000000000000000000000000000000000000000000000000000000000815260040161069a906117c1565b60405180910390fd5b600080600084815260200190815260200160002090508060060160149054906101000a900460ff1661070a576040517f08c379a00000000000000000000000000000000000000000000000000000000081526004016107019061182d565b60405180910390fd5b600360009054906101000a900473ffffffffffffffffffffffffffffffffffffffff1673ffffffffffffffffffffffffffffffffffffffff166323b872dd3330856040518463ffffffff1660e01b81526004016107699392919061184d565b6020604051808303816000875af1158015610788573d6000803e3d6000fd5b505050506040513d601f19601f820116820180604052508101906107ac919061168d565b6107eb576040517f08c379a00000000000000000000000000000000000000000000000000000000081526004016107e290611706565b60405180910390fd5b818160040160008282546107ff91906118b3565b92505081905550600160003373ffffffffffffffffffffffffffffffffffffffff1673ffffffffffffffffffffffffffffffffffffffff16815260200190815260200160002060405180608001604052808581526020013373ffffffffffffffffffffffffffffffffffffffff1681526020018481526020014281525090806001815401808255809150506001900390600052602060002090600402016000909190919091506000820151816000015560208201518160010160006101000a81548173ffffffffffffffffffffffffffffffffffffffff021916908373ffffffffffffffffffffffffffffffffffffffff16021790555060408201518160020155606082015181600301555050823373ffffffffffffffffffffffffffffffffffffffff167f3168ca6b1e292883c0668008556fb887f7cce92bcd3c1c57c15a34dcdccd58928442604051610955929190611726565b60405180910390a3505050565b6001602052816000526040600020818154811061097e57600080fd5b9060005260206000209060040201600091509150508060000154908060010160009054906101000a900473ffffffffffffffffffffffffffffffffffffffff16908060020154908060030154905084565b6060600160008373ffffffffffffffffffffffffffffffffffffffff1673ffffffffffffffffffffffffffffffffffffffff168152602001908152602001600020805480602002602001604051908101604052809291908181526020016000905b82821015610ad65783829060005260206000209060040201604051806080016040529081600082015481526020016001820160009054906101000a900473ffffffffffffffffffffffffffffffffffffffff1673ffffffffffffffffffffffffffffffffffffffff1673ffffffffffffffffffffffffffffffffffffffff1681526020016002820154815260200160038201548152505081526020019060010190610a30565b505050509050919050565b60008211610b24576040517f08c379a0000000000000000000000000000000000000000000000000000000008152600401610b1b90611959565b60405180910390fd5b600073ffffffffffffffffffffffffffffffffffffffff168173ffffffffffffffffffffffffffffffffffffffff1603610b93576040517f08c379a0000000000000000000000000000000000000000000000000000000008152600401610b8a90611618565b60405180910390fd5b60026000815480929190610ba690611979565b91905055506040518061012001604052806002548152602001858152602001848152602001838152602001600081526020018273ffffffffffffffffffffffffffffffffffffffff1681526020013373ffffffffffffffffffffffffffffffffffffffff168152602001600115158152602001428152506000806002548152602001908152602001600020600082015181600001556020820151816001019081610c509190611b63565b506040820151816002019081610c669190611b63565b50606082015181600301556080820151816004015560a08201518160050160006101000a81548173ffffffffffffffffffffffffffffffffffffffff021916908373ffffffffffffffffffffffffffffffffffffffff16021790555060c08201518160060160006101000a81548173ffffffffffffffffffffffffffffffffffffffff021916908373ffffffffffffffffffffffffffffffffffffffff16021790555060e08201518160060160146101000a81548160ff02191690831515021790555061010082015181600701559050503373ffffffffffffffffffffffffffffffffffffffff166002547f91b289a829e71d811b8c69e4a24ba2d40d115d8a236e9a724cb3bb2d43cf72238442604051610d82929190611726565b60405180910390a350505050565b60025481565b600073ffffffffffffffffffffffffffffffffffffffff82169050919050565b6000819050919050565b6000610ddb610dd6610dd184610d96565b610db6565b610d96565b9050919050565b6000610ded82610dc0565b9050919050565b6000610dff82610de2565b9050919050565b610e0f81610df4565b82525050565b6000602082019050610e2a6000830184610e06565b92915050565b6000604051905090565b600080fd5b600080fd5b6000819050919050565b610e5781610e44565b8114610e6257600080fd5b50565b600081359050610e7481610e4e565b92915050565b600060208284031215610e9057610e8f610e3a565b5b6000610e9e84828501610e65565b91505092915050565b610eb081610e44565b82525050565b600081519050919050565b600082825260208201905092915050565b60005b83811015610ef0578082015181840152602081019050610ed5565b60008484015250505050565b6000601f19601f8301169050919050565b6000610f1882610eb6565b610f228185610ec1565b9350610f32818560208601610ed2565b610f3b81610efc565b840191505092915050565b6000610f5182610d96565b9050919050565b610f6181610f46565b82525050565b60008115159050919050565b610f7c81610f67565b82525050565b600061012082019050610f98600083018c610ea7565b8181036020830152610faa818b610f0d565b90508181036040830152610fbe818a610f0d565b9050610fcd6060830189610ea7565b610fda6080830188610ea7565b610fe760a0830187610f58565b610ff460c0830186610f58565b61100160e0830185610f73565b61100f610100830184610ea7565b9a9950505050505050505050565b6000806040838503121561103457611033610e3a565b5b600061104285828601610e65565b925050602061105385828601610e65565b9150509250929050565b61106681610f46565b811461107157600080fd5b50565b6000813590506110838161105d565b92915050565b600080604083850312156110a05761109f610e3a565b5b60006110ae85828601611074565b92505060206110bf85828601610e65565b9150509250929050565b60006080820190506110de6000830187610ea7565b6110eb6020830186610f58565b6110f86040830185610ea7565b6111056060830184610ea7565b95945050505050565b60006020828403121561112457611123610e3a565b5b600061113284828501611074565b91505092915050565b600081519050919050565b600082825260208201905092915050565b6000819050602082019050919050565b61117081610e44565b82525050565b61117f81610f46565b82525050565b60808201600082015161119b6000850182611167565b5060208201516111ae6020850182611176565b5060408201516111c16040850182611167565b5060608201516111d46060850182611167565b50505050565b60006111e68383611185565b60808301905092915050565b6000602082019050919050565b600061120a8261113b565b6112148185611146565b935061121f83611157565b8060005b8381101561125057815161123788826111da565b9750611242836111f2565b925050600181019050611223565b5085935050505092915050565b6000602082019050818103600083015261127781846111ff565b905092915050565b600080fd5b600080fd5b7f4e487b7100000000000000000000000000000000000000000000000000000000600052604160045260246000fd5b6112c182610efc565b810181811067ffffffffffffffff821117156112e0576112df611289565b5b80604052505050565b60006112f3610e30565b90506112ff82826112b8565b919050565b600067ffffffffffffffff82111561131f5761131e611289565b5b61132882610efc565b9050602081019050919050565b82818337600083830152505050565b600061135761135284611304565b6112e9565b90508281526020810184848401111561137357611372611284565b5b61137e848285611335565b509392505050565b600082601f83011261139b5761139a61127f565b5b81356113ab848260208601611344565b91505092915050565b600080600080608085870312156113ce576113cd610e3a565b5b600085013567ffffffffffffffff8111156113ec576113eb610e3f565b5b6113f887828801611386565b945050602085013567ffffffffffffffff81111561141957611418610e3f565b5b61142587828801611386565b935050604061143687828801610e65565b925050606061144787828801611074565b91505092959194509250565b60006020820190506114686000830184610ea7565b92915050565b7f4e487b7100000000000000000000000000000000000000000000000000000000600052602260045260246000fd5b600060028204905060018216806114b557607f821691505b6020821081036114c8576114c761146e565b5b50919050565b7f4f6e6c7920746865206f776e65722063616e2077697468647261772066756e6460008201527f7300000000000000000000000000000000000000000000000000000000000000602082015250565b600061152a602183610ec1565b9150611535826114ce565b604082019050919050565b600060208201905081810360008301526115598161151d565b9050919050565b7f4e6f2066756e647320617661696c61626c6520746f2077697468647261770000600082015250565b6000611596601e83610ec1565b91506115a182611560565b602082019050919050565b600060208201905081810360008301526115c581611589565b9050919050565b7f496e76616c69642062656e656669636961727920616464726573730000000000600082015250565b6000611602601b83610ec1565b915061160d826115cc565b602082019050919050565b60006020820190508181036000830152611631816115f5565b9050919050565b600060408201905061164d6000830185610f58565b61165a6020830184610ea7565b9392505050565b61166a81610f67565b811461167557600080fd5b50565b60008151905061168781611661565b92915050565b6000602082840312156116a3576116a2610e3a565b5b60006116b184828501611678565b91505092915050565b7f546f6b656e207472616e73666572206661696c65640000000000000000000000600082015250565b60006116f0601583610ec1565b91506116fb826116ba565b602082019050919050565b6000602082019050818103600083015261171f816116e3565b9050919050565b600060408201905061173b6000830185610ea7565b6117486020830184610ea7565b9392505050565b7f446f6e6174696f6e20616d6f756e74206d75737420626520677265617465722060008201527f7468616e207a65726f0000000000000000000000000000000000000000000000602082015250565b60006117ab602983610ec1565b91506117b68261174f565b604082019050919050565b600060208201905081810360008301526117da8161179e565b9050919050565b7f43616d706169676e206973206e6f742061637469766500000000000000000000600082015250565b6000611817601683610ec1565b9150611822826117e1565b602082019050919050565b600060208201905081810360008301526118468161180a565b9050919050565b60006060820190506118626000830186610f58565b61186f6020830185610f58565b61187c6040830184610ea7565b949350505050565b7f4e487b7100000000000000000000000000000000000000000000000000000000600052601160045260246000fd5b60006118be82610e44565b91506118c983610e44565b92508282019050808211156118e1576118e0611884565b5b92915050565b7f54617267657420616d6f756e74206d757374206265206772656174657220746860008201527f616e207a65726f00000000000000000000000000000000000000000000000000602082015250565b6000611943602783610ec1565b915061194e826118e7565b604082019050919050565b6000602082019050818103600083015261197281611936565b9050919050565b600061198482610e44565b91507fffffffffffffffffffffffffffffffffffffffffffffffffffffffffffffffff82036119b6576119b5611884565b5b600182019050919050565b60008190508160005260206000209050919050565b60006020601f8301049050919050565b600082821b905092915050565b600060088302611a237fffffffffffffffffffffffffffffffffffffffffffffffffffffffffffffffff826119e6565b611a2d86836119e6565b95508019841693508086168417925050509392505050565b6000611a60611a5b611a5684610e44565b610db6565b610e44565b9050919050565b6000819050919050565b611a7a83611a45565b611a8e611a8682611a67565b8484546119f3565b825550505050565b600090565b611aa3611a96565b611aae818484611a71565b505050565b5b81811015611ad257611ac7600082611a9b565b600181019050611ab4565b5050565b601f821115611b1757611ae8816119c1565b611af1846119d6565b81016020851015611b00578190505b611b14611b0c856119d6565b830182611ab3565b50505b505050565b600082821c905092915050565b6000611b3a60001984600802611b1c565b1980831691505092915050565b6000611b538383611b29565b9150826002028217905092915050565b611b6c82610eb6565b67ffffffffffffffff811115611b8557611b84611289565b5b611b8f825461149d565b611b9a828285611ad6565b600060209050601f831160018114611bcd5760008415611bbb578287015190505b611bc58582611b47565b865550611c2d565b601f198416611bdb866119c1565b60005b82811015611c0357848901518255600182019150602085019450602081019050611bde565b86831015611c205784890151611c1c601f891682611b29565b8355505b6001600288020188555050505b50505050505056fea2646970667358221220f45a16a17b985839d94cf91ed7b09580ae6056277f7e5d8b1757942ec0ee81c464736f6c634300081b0033",
    "linkReferences": {},
    "deployedLinkReferences": {}
}